{
  "contractName": "Manufacturer",
  "abi": [
    {
      "constant": false,
      "inputs": [
        {
          "name": "logadd",
          "type": "address"
        },
        {
          "name": "lot",
          "type": "uint256"
        },
        {
          "name": "loc",
          "type": "uint256"
        }
      ],
      "name": "setManData",
      "outputs": [
        {
          "name": "",
          "type": "uint256"
        }
      ],
      "payable": false,
      "stateMutability": "nonpayable",
      "type": "function"
    }
  ],
  "bytecode": "0x60606040526103e8600255341561001557600080fd5b610430806100246000396000f300606060405260043610610041576000357c0100000000000000000000000000000000000000000000000000000000900463ffffffff1680639dd78f3114610046575b600080fd5b341561005157600080fd5b61008f600480803573ffffffffffffffffffffffffffffffffffffffff169060200190919080359060200190919080359060200190919050506100a5565b6040518082815260200191505060405180910390f35b600083600160006101000a81548173ffffffffffffffffffffffffffffffffffffffff021916908373ffffffffffffffffffffffffffffffffffffffff1602179055503360008085815260200190815260200160002060000160006101000a81548173ffffffffffffffffffffffffffffffffffffffff021916908373ffffffffffffffffffffffffffffffffffffffff160217905550600160009054906101000a900473ffffffffffffffffffffffffffffffffffffffff1673ffffffffffffffffffffffffffffffffffffffff16639f77a605846000604051602001526040518263ffffffff167c010000000000000000000000000000000000000000000000000000000002815260040180828152602001915050602060405180830381600087803b15156101d557600080fd5b6102c65a03f115156101e657600080fd5b5050506040518051905060008085815260200190815260200160002060010181905550600160009054906101000a900473ffffffffffffffffffffffffffffffffffffffff1673ffffffffffffffffffffffffffffffffffffffff1663d851fdfd846000604051602001526040518263ffffffff167c010000000000000000000000000000000000000000000000000000000002815260040180828152602001915050602060405180830381600087803b15156102a257600080fd5b6102c65a03f115156102b357600080fd5b5050506040518051905060008085815260200190815260200160002060020181905550600160009054906101000a900473ffffffffffffffffffffffffffffffffffffffff1673ffffffffffffffffffffffffffffffffffffffff16635ebd9ded846000604051602001526040518263ffffffff167c010000000000000000000000000000000000000000000000000000000002815260040180828152602001915050602060405180830381600087803b151561036f57600080fd5b6102c65a03f1151561038057600080fd5b505050604051805190506000808581526020019081526020016000206003018190555081600080858152602001908152602001600020600401819055506002546000808581526020019081526020016000206005018190555060016002540160028190555060008084815260200190815260200160002060050154905093925050505600a165627a7a72305820ab1420f81cc539c0248d294d029a4d90ae249eca048e1b685a9c70d1cc9977500029",
  "source": "pragma solidity ^0.4.16;\n// import \"github.com/Arachnid/solidity-stringutils/strings.sol\";\nimport \"./strings.sol\";\n\ncontract Farmer{\n     using strings for *;\n\n    enum farmer_type{dairy,vegetable,grain}\n    struct farmer_data {\n        address farmer_address;\n        uint farmer_type;\n        uint weight;\n        uint quantity;\n        uint256 timestamp;\n        string location;\n       // uint lot;\n    }\n    uint guestlot = 1000;\n    mapping(uint => farmer_data) public data;\n    function setData(uint farmer_type1,uint weight1,uint quantity1,string location1,uint lot1) public returns (uint)\n    {\n        data[lot1].farmer_address=msg.sender;\n        data[lot1].farmer_type=farmer_type1;\n        data[lot1].weight=weight1;\n        data[lot1].quantity=quantity1;\n        data[lot1].timestamp=now;\n        data[lot1].location=location1;\n        return lot1;\n    }\n//    function stringToBytes32(string memory source) public returns (byteses32 result) {\n//     bytes memory tempEmptyStringTest = bytes(source);\n//     if (tempEmptyStringTest.length == 0) {\n//         return 0x0;\n//     }\n//     assembly {\n//         result := mload(add(source, 32))\n//     }\n// }\n//    function bytes32ToString (bytes32 d) public returns (string) {\n//     bytes memory bytesString = new bytes(32);\n//     for (uint j=0; j<32; j++) {\n//         byte char = byte(bytes32(uint(d) * 2 ** (8 * j)));\n//         if (char != 0) {\n//             bytesString[j] = char;\n//         }\n//     }\n//     return string(bytesString);\n// }\n    // function getData(uint lot) returns(string)\n    // {\n    //     return bytes32ToString(data[lot].product);\n    // }\n    // function getProduct(uint lot) returns(bytes32)\n    // {\n    //     return data[lot].product;\n    // }\n    function getAddress(uint lot) public returns(address)\n    {\n        return data[lot].farmer_address;\n    }\n    function getType(uint lot) public returns(uint)\n    {\n        return data[lot].farmer_type;\n    }\n    function getWeight(uint lot) public returns(uint)\n    {\n        return data[lot].weight;\n    }\n    function getQuantity(uint lot) public returns(uint)\n    {\n        return data[lot].quantity;\n    }\n}\ncontract Manufacturer {\n         using strings for *;\n\n\n    struct man_data {\n        address manAdd;\n        uint prodId;\n        uint weight;\n        uint quantity;\n        uint location;\n        uint Nlot;\n    }\n    mapping(uint => man_data) data;\n    Logistics log;\n    uint nLot = 1000;\n    function setManData(address logadd, uint lot, uint loc) returns (uint){\n        log = Logistics(logadd);\n        data[lot].manAdd = msg.sender;\n        data[lot].prodId = log.getProductId(lot);\n        data[lot].weight = log.getWeight(lot);\n        data[lot].quantity = log.getQuantity(lot);\n        data[lot].location = loc;\n        data[lot].Nlot = nLot;\n        nLot= nLot +1;\n        return data[lot].Nlot;\n    }\n}\n\ncontract Logistics is Farmer,Manufacturer{\n\n         using strings for *;\n\n\n    enum goods_type{dairy,vegetable,grain}\n    //enum goods_type{};\n    struct log_data {\n        address logaddress;\n        uint lot;\n        uint temp;\n        address provider;\n        uint weight;\n        uint quantity;\n        uint farmerType;\n    }\n    mapping(uint => log_data) data;\n    Farmer farmer;\n    Logistics log;\n    function setLogData(address add, uint lot1, uint temp1, string id) returns (uint)\n    {\n    if(id.toSlice().equals(\"farmer\".toSlice())) {\n        farmer = Farmer(add);\n        data[lot1].logaddress = msg.sender;\n        data[lot1].provider = farmer.getAddress(lot1);\n        data[lot1].weight = farmer.getWeight(lot1);\n        data[lot1].quantity = farmer.getQuantity(lot1);\n        data[lot1].temp = temp1;\n        data[lot1].farmerType = farmer.getType(lot1);\n        return lot1;\n        }\n    else if(id.toSlice().equals(\"3pl\".toSlice())) {\n        log = Logistics(add);\n        data[lot1].logaddress = msg.sender;\n        data[lot1].provider = farmer.getAddress(lot1);\n        data[lot1].weight = farmer.getWeight(lot1);\n        data[lot1].quantity = farmer.getQuantity(lot1);\n        data[lot1].temp = temp1;\n        data[lot1].farmerType = farmer.getType(lot1);\n        return lot1;\n    }\n    }\n    function getfarmerAdderss(uint lot) returns(address)\n    {\n        return data[lot].provider;\n    }\n    function getProductId(uint lot) returns(uint)\n    {\n        return data[lot].farmerType;\n    }\n    function getWeight(uint lot) returns(uint)\n    {\n        return data[lot].weight;\n    }\n    function getQuantity(uint lot) returns(uint)\n    {\n        return data[lot].quantity;\n    }\n}\n",
  "sourcePath": "/media/parik/New Volume/blockchain/blockchainFoodSupply/contracts/first.sol",
  "compiler": {
    "name": "solc",
    "version": "0.4.19+commit.c4cbbb05.Emscripten.clang"
  },
  "schemaVersion": "1.0.1",
  "updatedAt": "2018-04-15T09:09:19.183Z"
}