{
  "contractName": "RichDapp",
  "abi": [
    {
      "constant": true,
      "inputs": [
        {
          "name": "",
          "type": "uint256"
        }
      ],
      "name": "PLdata",
      "outputs": [
        {
          "name": "PL_address",
          "type": "address"
        },
        {
          "name": "product",
          "type": "string"
        },
        {
          "name": "weight",
          "type": "uint256"
        },
        {
          "name": "quantity",
          "type": "uint256"
        },
        {
          "name": "timestamp",
          "type": "uint256"
        },
        {
          "name": "inbound",
          "type": "address"
        },
        {
          "name": "outbound",
          "type": "address"
        },
        {
          "name": "temperature",
          "type": "uint256"
        },
        {
          "name": "lot",
          "type": "uint256"
        }
      ],
      "payable": false,
      "stateMutability": "view",
      "type": "function"
    },
    {
      "constant": true,
      "inputs": [
        {
          "name": "",
          "type": "uint256"
        }
      ],
      "name": "wdata",
      "outputs": [
        {
          "name": "ware_address",
          "type": "address"
        },
        {
          "name": "product",
          "type": "string"
        },
        {
          "name": "weight",
          "type": "uint256"
        },
        {
          "name": "quantity",
          "type": "uint256"
        },
        {
          "name": "timestamp",
          "type": "uint256"
        },
        {
          "name": "location",
          "type": "string"
        },
        {
          "name": "temperature",
          "type": "uint256"
        },
        {
          "name": "lot",
          "type": "uint256"
        }
      ],
      "payable": false,
      "stateMutability": "view",
      "type": "function"
    },
    {
      "constant": true,
      "inputs": [
        {
          "name": "",
          "type": "uint256"
        }
      ],
      "name": "mdata",
      "outputs": [
        {
          "name": "man_address",
          "type": "address"
        },
        {
          "name": "product",
          "type": "string"
        },
        {
          "name": "weight",
          "type": "uint256"
        },
        {
          "name": "quantity",
          "type": "uint256"
        },
        {
          "name": "timestamp",
          "type": "uint256"
        },
        {
          "name": "location",
          "type": "string"
        },
        {
          "name": "old_lot",
          "type": "uint256"
        }
      ],
      "payable": false,
      "stateMutability": "view",
      "type": "function"
    },
    {
      "constant": true,
      "inputs": [
        {
          "name": "",
          "type": "uint256"
        }
      ],
      "name": "sdata",
      "outputs": [
        {
          "name": "store_address",
          "type": "address"
        },
        {
          "name": "product",
          "type": "string"
        },
        {
          "name": "weight",
          "type": "uint256"
        },
        {
          "name": "quantity",
          "type": "uint256"
        },
        {
          "name": "location",
          "type": "string"
        },
        {
          "name": "lot",
          "type": "uint256"
        }
      ],
      "payable": false,
      "stateMutability": "view",
      "type": "function"
    },
    {
      "constant": true,
      "inputs": [
        {
          "name": "",
          "type": "uint256"
        }
      ],
      "name": "fdata",
      "outputs": [
        {
          "name": "farmer_address",
          "type": "address"
        },
        {
          "name": "farmer_type",
          "type": "uint256"
        },
        {
          "name": "product",
          "type": "string"
        },
        {
          "name": "weight",
          "type": "uint256"
        },
        {
          "name": "quantity",
          "type": "uint256"
        },
        {
          "name": "timestamp",
          "type": "uint256"
        },
        {
          "name": "location",
          "type": "string"
        }
      ],
      "payable": false,
      "stateMutability": "view",
      "type": "function"
    },
    {
      "inputs": [
        {
          "name": "fa",
          "type": "address"
        },
        {
          "name": "pa",
          "type": "address"
        },
        {
          "name": "ma",
          "type": "address"
        },
        {
          "name": "wa",
          "type": "address"
        },
        {
          "name": "sa",
          "type": "address"
        }
      ],
      "payable": false,
      "stateMutability": "nonpayable",
      "type": "constructor"
    },
    {
      "constant": false,
      "inputs": [
        {
          "name": "fa",
          "type": "address"
        },
        {
          "name": "pa",
          "type": "address"
        },
        {
          "name": "ma",
          "type": "address"
        },
        {
          "name": "wa",
          "type": "address"
        },
        {
          "name": "sa",
          "type": "address"
        }
      ],
      "name": "setRichData",
      "outputs": [],
      "payable": false,
      "stateMutability": "nonpayable",
      "type": "function"
    },
    {
      "constant": false,
      "inputs": [],
      "name": "generate3Lot",
      "outputs": [
        {
          "name": "",
          "type": "uint256"
        }
      ],
      "payable": false,
      "stateMutability": "nonpayable",
      "type": "function"
    },
    {
      "constant": false,
      "inputs": [],
      "name": "generate4Lot",
      "outputs": [
        {
          "name": "",
          "type": "uint256"
        }
      ],
      "payable": false,
      "stateMutability": "nonpayable",
      "type": "function"
    },
    {
      "constant": false,
      "inputs": [
        {
          "name": "farmer_type",
          "type": "uint256"
        },
        {
          "name": "product",
          "type": "string"
        },
        {
          "name": "weight",
          "type": "uint256"
        },
        {
          "name": "quantity",
          "type": "uint256"
        },
        {
          "name": "location",
          "type": "string"
        }
      ],
      "name": "getFarmerData",
      "outputs": [
        {
          "name": "",
          "type": "uint256"
        }
      ],
      "payable": false,
      "stateMutability": "nonpayable",
      "type": "function"
    },
    {
      "constant": false,
      "inputs": [
        {
          "name": "lot",
          "type": "uint256"
        },
        {
          "name": "inbound",
          "type": "address"
        },
        {
          "name": "outbound",
          "type": "address"
        },
        {
          "name": "temperature",
          "type": "uint256"
        }
      ],
      "name": "getPLData",
      "outputs": [
        {
          "name": "",
          "type": "uint256"
        },
        {
          "name": "",
          "type": "string"
        }
      ],
      "payable": false,
      "stateMutability": "nonpayable",
      "type": "function"
    },
    {
      "constant": false,
      "inputs": [
        {
          "name": "lot",
          "type": "uint256"
        },
        {
          "name": "location",
          "type": "string"
        },
        {
          "name": "product",
          "type": "string"
        },
        {
          "name": "quantity",
          "type": "uint256"
        },
        {
          "name": "weight",
          "type": "uint256"
        }
      ],
      "name": "getManufacturerData",
      "outputs": [
        {
          "name": "",
          "type": "uint256"
        }
      ],
      "payable": false,
      "stateMutability": "nonpayable",
      "type": "function"
    },
    {
      "constant": false,
      "inputs": [
        {
          "name": "lot",
          "type": "uint256"
        },
        {
          "name": "location",
          "type": "string"
        }
      ],
      "name": "getWareHouseData",
      "outputs": [
        {
          "name": "",
          "type": "string"
        }
      ],
      "payable": false,
      "stateMutability": "nonpayable",
      "type": "function"
    },
    {
      "constant": false,
      "inputs": [
        {
          "name": "lot",
          "type": "uint256"
        },
        {
          "name": "location",
          "type": "string"
        }
      ],
      "name": "getStoreData",
      "outputs": [
        {
          "name": "",
          "type": "string"
        }
      ],
      "payable": false,
      "stateMutability": "nonpayable",
      "type": "function"
    },
    {
      "constant": false,
      "inputs": [
        {
          "name": "lot",
          "type": "uint256"
        }
      ],
      "name": "consumer",
      "outputs": [],
      "payable": false,
      "stateMutability": "nonpayable",
      "type": "function"
    }
  ],
  "bytecode": "0x606060405260646005556103e8600655341561001a57600080fd5b60405160a080611fb083398101604052808051906020019091908051906020019091908051906020019091908051906020019091908051906020019091905050846000806101000a81548173ffffffffffffffffffffffffffffffffffffffff021916908373ffffffffffffffffffffffffffffffffffffffff16021790555083600160006101000a81548173ffffffffffffffffffffffffffffffffffffffff021916908373ffffffffffffffffffffffffffffffffffffffff16021790555082600260006101000a81548173ffffffffffffffffffffffffffffffffffffffff021916908373ffffffffffffffffffffffffffffffffffffffff16021790555081600360006101000a81548173ffffffffffffffffffffffffffffffffffffffff021916908373ffffffffffffffffffffffffffffffffffffffff16021790555080600460006101000a81548173ffffffffffffffffffffffffffffffffffffffff021916908373ffffffffffffffffffffffffffffffffffffffff1602179055505050505050611dfe806101b26000396000f3006060604052600436106100d0576000357c0100000000000000000000000000000000000000000000000000000000900463ffffffff168063019d74e5146100d5578063147337251461024a5780633902370f146103e25780633a14146b146104c1578063405a3b0d146104ea578063526100cf146105b95780635bb55471146106885780636c763a6e146107675780637257b7f7146108f8578063825e0633146109e2578063a15a075f14610a97578063c6ce6f9514610c21578063ed2c45a414610c4a578063f9efd5fe14610c6d575b600080fd5b34156100e057600080fd5b6100f66004808035906020019091905050610dfe565b604051808a73ffffffffffffffffffffffffffffffffffffffff1673ffffffffffffffffffffffffffffffffffffffff168152602001806020018981526020018881526020018781526020018673ffffffffffffffffffffffffffffffffffffffff1673ffffffffffffffffffffffffffffffffffffffff1681526020018573ffffffffffffffffffffffffffffffffffffffff1673ffffffffffffffffffffffffffffffffffffffff16815260200184815260200183815260200182810382528a8181546001816001161561010002031660029004815260200191508054600181600116156101000203166002900480156102335780601f1061020857610100808354040283529160200191610233565b820191906000526020600020905b81548152906001019060200180831161021657829003601f168201915b50509a505050505050505050505060405180910390f35b341561025557600080fd5b61026b6004808035906020019091905050610eab565b604051808973ffffffffffffffffffffffffffffffffffffffff1673ffffffffffffffffffffffffffffffffffffffff168152602001806020018881526020018781526020018681526020018060200185815260200184815260200183810383528a8181546001816001161561010002031660029004815260200191508054600181600116156101000203166002900480156103485780601f1061031d57610100808354040283529160200191610348565b820191906000526020600020905b81548152906001019060200180831161032b57829003601f168201915b50508381038252868181546001816001161561010002031660029004815260200191508054600181600116156101000203166002900480156103cb5780601f106103a0576101008083540402835291602001916103cb565b820191906000526020600020905b8154815290600101906020018083116103ae57829003601f168201915b50509a505050505050505050505060405180910390f35b34156103ed57600080fd5b610446600480803590602001909190803590602001908201803590602001908080601f01602080910402602001604051908101604052809392919081815260200183838082843782019150505050505091905050610f11565b6040518080602001828103825283818151815260200191508051906020019080838360005b8381101561048657808201518184015260208101905061046b565b50505050905090810190601f1680156104b35780820380516001836020036101000a031916815260200191505b509250505060405180910390f35b34156104cc57600080fd5b6104d461114a565b6040518082815260200191505060405180910390f35b34156104f557600080fd5b6105a3600480803590602001909190803590602001908201803590602001908080601f0160208091040260200160405190810160405280939291908181526020018383808284378201915050505050509190803590602001909190803590602001909190803590602001908201803590602001908080601f01602080910402602001604051908101604052809392919081815260200183838082843782019150505050505091905050611160565b6040518082815260200191505060405180910390f35b34156105c457600080fd5b610672600480803590602001909190803590602001908201803590602001908080601f0160208091040260200160405190810160405280939291908181526020018383808284378201915050505050509190803590602001908201803590602001908080601f01602080910402602001604051908101604052809392919081815260200183838082843782019150505050505091908035906020019091908035906020019091905050611291565b6040518082815260200191505060405180910390f35b341561069357600080fd5b6106ec600480803590602001909190803590602001908201803590602001908080601f016020809104026020016040519081016040528093929190818152602001838380828437820191505050505050919050506113c2565b6040518080602001828103825283818151815260200191508051906020019080838360005b8381101561072c578082015181840152602081019050610711565b50505050905090810190601f1680156107595780820380516001836020036101000a031916815260200191505b509250505060405180910390f35b341561077257600080fd5b61078860048080359060200190919050506115ca565b604051808873ffffffffffffffffffffffffffffffffffffffff1673ffffffffffffffffffffffffffffffffffffffff168152602001806020018781526020018681526020018581526020018060200184815260200183810383528981815460018160011615610100020316600290048152602001915080546001816001161561010002031660029004801561085f5780601f106108345761010080835404028352916020019161085f565b820191906000526020600020905b81548152906001019060200180831161084257829003601f168201915b50508381038252858181546001816001161561010002031660029004815260200191508054600181600116156101000203166002900480156108e25780601f106108b7576101008083540402835291602001916108e2565b820191906000526020600020905b8154815290600101906020018083116108c557829003601f168201915b5050995050505050505050505060405180910390f35b341561090357600080fd5b610960600480803590602001909190803573ffffffffffffffffffffffffffffffffffffffff1690602001909190803573ffffffffffffffffffffffffffffffffffffffff1690602001909190803590602001909190505061162a565b6040518083815260200180602001828103825283818151815260200191508051906020019080838360005b838110156109a657808201518184015260208101905061098b565b50505050905090810190601f1680156109d35780820380516001836020036101000a031916815260200191505b50935050505060405180910390f35b34156109ed57600080fd5b610a95600480803573ffffffffffffffffffffffffffffffffffffffff1690602001909190803573ffffffffffffffffffffffffffffffffffffffff1690602001909190803573ffffffffffffffffffffffffffffffffffffffff1690602001909190803573ffffffffffffffffffffffffffffffffffffffff1690602001909190803573ffffffffffffffffffffffffffffffffffffffff16906020019091905050611a74565b005b3415610aa257600080fd5b610ab86004808035906020019091905050611bbf565b604051808773ffffffffffffffffffffffffffffffffffffffff1673ffffffffffffffffffffffffffffffffffffffff1681526020018060200186815260200185815260200180602001848152602001838103835288818154600181600116156101000203166002900481526020019150805460018160011615610100020316600290048015610b895780601f10610b5e57610100808354040283529160200191610b89565b820191906000526020600020905b815481529060010190602001808311610b6c57829003601f168201915b5050838103825285818154600181600116156101000203166002900481526020019150805460018160011615610100020316600290048015610c0c5780601f10610be157610100808354040283529160200191610c0c565b820191906000526020600020905b815481529060010190602001808311610bef57829003601f168201915b50509850505050505050505060405180910390f35b3415610c2c57600080fd5b610c34611c19565b6040518082815260200191505060405180910390f35b3415610c5557600080fd5b610c6b6004808035906020019091905050611c2f565b005b3415610c7857600080fd5b610c8e6004808035906020019091905050611c32565b604051808873ffffffffffffffffffffffffffffffffffffffff1673ffffffffffffffffffffffffffffffffffffffff1681526020018781526020018060200186815260200185815260200184815260200180602001838103835288818154600181600116156101000203166002900481526020019150805460018160011615610100020316600290048015610d655780601f10610d3a57610100808354040283529160200191610d65565b820191906000526020600020905b815481529060010190602001808311610d4857829003601f168201915b5050838103825284818154600181600116156101000203166002900481526020019150805460018160011615610100020316600290048015610de85780601f10610dbd57610100808354040283529160200191610de8565b820191906000526020600020905b815481529060010190602001808311610dcb57829003601f168201915b5050995050505050505050505060405180910390f35b60086020528060005260406000206000915090508060000160009054906101000a900473ffffffffffffffffffffffffffffffffffffffff169080600101908060020154908060030154908060040154908060050160009054906101000a900473ffffffffffffffffffffffffffffffffffffffff16908060060160009054906101000a900473ffffffffffffffffffffffffffffffffffffffff16908060070154908060080154905089565b600a6020528060005260406000206000915090508060000160009054906101000a900473ffffffffffffffffffffffffffffffffffffffff1690806001019080600201549080600301549080600401549080600501908060060154908060070154905088565b610f19611c92565b33600a600085815260200190815260200160002060000160006101000a81548173ffffffffffffffffffffffffffffffffffffffff021916908373ffffffffffffffffffffffffffffffffffffffff16021790555060086000848152602001908152602001600020600101600a60008581526020019081526020016000206001019080546001816001161561010002031660029004610fb9929190611ca6565b506008600084815260200190815260200160002060020154600a6000858152602001908152602001600020600201819055506008600084815260200190815260200160002060030154600a60008581526020019081526020016000206003018190555081600a60008581526020019081526020016000206005019080519060200190611046929190611d2d565b506008600084815260200190815260200160002060070154600a60008581526020019081526020016000206006018190555082600a600085815260200190815260200160002060070181905550600a60008481526020019081526020016000206001018054600181600116156101000203166002900480601f01602080910402602001604051908101604052809291908181526020018280546001816001161561010002031660029004801561113d5780601f106111125761010080835404028352916020019161113d565b820191906000526020600020905b81548152906001019060200180831161112057829003601f168201915b5050505050905092915050565b6000600160065401600681905550600654905090565b60008061116b611c19565b9050336007600083815260200190815260200160002060000160006101000a81548173ffffffffffffffffffffffffffffffffffffffff021916908373ffffffffffffffffffffffffffffffffffffffff16021790555086600760008381526020019081526020016000206001018190555085600760008381526020019081526020016000206002019080519060200190611207929190611d2d565b5084600760008381526020019081526020016000206003018190555083600760008381526020019081526020016000206004018190555042600760008381526020019081526020016000206005018190555082600760008381526020019081526020016000206006019080519060200190611283929190611d2d565b508091505095945050505050565b60008061129c61114a565b9050336009600083815260200190815260200160002060000160006101000a81548173ffffffffffffffffffffffffffffffffffffffff021916908373ffffffffffffffffffffffffffffffffffffffff1602179055508460096000838152602001908152602001600020600101908051906020019061131d929190611d2d565b508360096000838152602001908152602001600020600301819055504260096000838152602001908152602001600020600401819055508560096000838152602001908152602001600020600501908051906020019061137e929190611d2d565b508260096000838152602001908152602001600020600201819055508660096000838152602001908152602001600020600601819055508091505095945050505050565b6113ca611c92565b33600b600085815260200190815260200160002060000160006101000a81548173ffffffffffffffffffffffffffffffffffffffff021916908373ffffffffffffffffffffffffffffffffffffffff16021790555060086000848152602001908152602001600020600101600b6000858152602001908152602001600020600101908054600181600116156101000203166002900461146a929190611ca6565b506008600084815260200190815260200160002060030154600b6000858152602001908152602001600020600301819055506008600084815260200190815260200160002060020154600b60008581526020019081526020016000206002018190555081600b600085815260200190815260200160002060040190805190602001906114f7929190611d2d565b5082600b600085815260200190815260200160002060050181905550600b60008481526020019081526020016000206001018054600181600116156101000203166002900480601f0160208091040260200160405190810160405280929190818152602001828054600181600116156101000203166002900480156115bd5780601f10611592576101008083540402835291602001916115bd565b820191906000526020600020905b8154815290600101906020018083116115a057829003601f168201915b5050505050905092915050565b60096020528060005260406000206000915090508060000160009054906101000a900473ffffffffffffffffffffffffffffffffffffffff1690806001019080600201549080600301549080600401549080600501908060060154905087565b6000611634611c92565b336008600088815260200190815260200160002060000160006101000a81548173ffffffffffffffffffffffffffffffffffffffff021916908373ffffffffffffffffffffffffffffffffffffffff160217905550426008600088815260200190815260200160002060040181905550846008600088815260200190815260200160002060050160006101000a81548173ffffffffffffffffffffffffffffffffffffffff021916908373ffffffffffffffffffffffffffffffffffffffff160217905550836008600088815260200190815260200160002060060160006101000a81548173ffffffffffffffffffffffffffffffffffffffff021916908373ffffffffffffffffffffffffffffffffffffffff16021790555082600860008881526020019081526020016000206007018190555085600860008881526020019081526020016000206008018190555060006103e88781151561179357fe5b0411151561190557600760008781526020019081526020016000206002016008600088815260200190815260200160002060010190805460018160011615610100020316600290046117e6929190611ca6565b5060076000878152602001908152602001600020600301546008600088815260200190815260200160002060020181905550600760008781526020019081526020016000206004015460086000888152602001908152602001600020600301819055508560086000888152602001908152602001600020600101808054600181600116156101000203166002900480601f0160208091040260200160405190810160405280929190818152602001828054600181600116156101000203166002900480156118f55780601f106118ca576101008083540402835291602001916118f5565b820191906000526020600020905b8154815290600101906020018083116118d857829003601f168201915b5050505050905091509150611a6b565b60096000878152602001908152602001600020600101600860008881526020019081526020016000206001019080546001816001161561010002031660029004611950929190611ca6565b5060096000878152602001908152602001600020600201546008600088815260200190815260200160002060020181905550600960008781526020019081526020016000206003015460086000888152602001908152602001600020600301819055508560086000888152602001908152602001600020600101808054600181600116156101000203166002900480601f016020809104026020016040519081016040528092919081815260200182805460018160011615610100020316600290048015611a5f5780601f10611a3457610100808354040283529160200191611a5f565b820191906000526020600020905b815481529060010190602001808311611a4257829003601f168201915b50505050509050915091505b94509492505050565b846000806101000a81548173ffffffffffffffffffffffffffffffffffffffff021916908373ffffffffffffffffffffffffffffffffffffffff16021790555083600160006101000a81548173ffffffffffffffffffffffffffffffffffffffff021916908373ffffffffffffffffffffffffffffffffffffffff16021790555082600260006101000a81548173ffffffffffffffffffffffffffffffffffffffff021916908373ffffffffffffffffffffffffffffffffffffffff16021790555081600360006101000a81548173ffffffffffffffffffffffffffffffffffffffff021916908373ffffffffffffffffffffffffffffffffffffffff16021790555080600460006101000a81548173ffffffffffffffffffffffffffffffffffffffff021916908373ffffffffffffffffffffffffffffffffffffffff1602179055505050505050565b600b6020528060005260406000206000915090508060000160009054906101000a900473ffffffffffffffffffffffffffffffffffffffff1690806001019080600201549080600301549080600401908060050154905086565b6000600160055401600581905550600554905090565b50565b60076020528060005260406000206000915090508060000160009054906101000a900473ffffffffffffffffffffffffffffffffffffffff1690806001015490806002019080600301549080600401549080600501549080600601905087565b602060405190810160405280600081525090565b828054600181600116156101000203166002900490600052602060002090601f016020900481019282601f10611cdf5780548555611d1c565b82800160010185558215611d1c57600052602060002091601f016020900482015b82811115611d1b578254825591600101919060010190611d00565b5b509050611d299190611dad565b5090565b828054600181600116156101000203166002900490600052602060002090601f016020900481019282601f10611d6e57805160ff1916838001178555611d9c565b82800160010185558215611d9c579182015b82811115611d9b578251825591602001919060010190611d80565b5b509050611da99190611dad565b5090565b611dcf91905b80821115611dcb576000816000905550600101611db3565b5090565b905600a165627a7a7230582058ffb8229df36afb6e244571d0b443396e04d92a4dffb12b15ce30cee6f173a70029",
  "source": "pragma solidity ^0.4.16;\ncontract RichDapp{\n    address farmer_address;\n    address PL_address;\n    address man_address;\n    address warehouse_address;\n    address store_address;\n    uint _3count=100;\n    uint _4count=1000;\n    \n    struct farmer_data {\n        address farmer_address;\n        uint farmer_type;\n        string product;\n        uint weight;\n        uint quantity;\n        uint256 timestamp;\n        string location;\n    }\n    struct PL_data{\n        address PL_address;\n        string product;\n        uint weight;\n        uint quantity;\n        uint256 timestamp;\n        address inbound;\n        address outbound;\n        uint temperature;\n        uint lot;\n    }\n    struct manufacture_data{\n        address man_address;\n         string product;\n        uint weight;\n        uint quantity;\n        uint256 timestamp;\n        string location;\n        uint old_lot;\n    }\n    struct warehouse_data{\n        address ware_address;\n        string product;\n         uint weight;\n        uint quantity;\n        uint256 timestamp;\n        string location;\n        uint temperature;\n        uint lot;\n    }\n    struct store_data{\n        address store_address;\n        string product;\n        uint weight;\n        uint quantity;\n        string location;\n        uint lot;\n    }\n    mapping(uint => farmer_data) public fdata;\n    mapping(uint => PL_data) public PLdata;\n    mapping(uint => manufacture_data) public mdata;\n    mapping(uint => warehouse_data) public wdata;\n    mapping(uint => store_data) public sdata;\n    function RichDapp(address fa,address pa,address ma,address wa,address sa)\n    {\n     farmer_address=fa;\n     PL_address=pa;\n     man_address=ma;\n     warehouse_address=wa;\n     store_address=sa;\n    }\n\n\n    function setRichData(address fa,address pa,address ma,address wa,address sa)\n    {\n     farmer_address=fa;\n     PL_address=pa;\n     man_address=ma;\n     warehouse_address=wa;\n     store_address=sa;\n    }\n\n    function generate3Lot() returns(uint)\n    {\n        _3count = _3count+1;\n        return _3count;\n    }\n    function generate4Lot() returns(uint)\n    {\n        _4count = _4count+1;\n        return _4count;\n    }\n    function getFarmerData(uint farmer_type,string product,uint weight,uint quantity,string location) returns (uint)\n    {\n      // require(msg.sender==farmer_address);\n       uint lot = generate3Lot();\n       fdata[lot].farmer_address=msg.sender;\n       fdata[lot].farmer_type=farmer_type;\n       fdata[lot].product=product;\n       fdata[lot].weight=weight;\n       fdata[lot].quantity=quantity;\n       fdata[lot].timestamp=now;\n       fdata[lot].location=location;\n      // return fdata[lot].product;\n      return lot;\n    }\n    function getPLData(uint lot,address inbound,address outbound,uint temperature) returns(uint,string)\n    {\n       // require(msg.sender==PL_address);\n       // require(provider=farmer_address);\n        PLdata[lot].PL_address=msg.sender;\n        PLdata[lot].timestamp=now;\n        PLdata[lot].inbound=inbound;\n        PLdata[lot].outbound=outbound;\n        PLdata[lot].temperature=temperature;\n        PLdata[lot].lot=lot;\n        if ((lot/1000)<=0 )\n        {\n        PLdata[lot].product= fdata[lot].product;\n        PLdata[lot].weight=fdata[lot].weight;\n        PLdata[lot].quantity=fdata[lot].quantity;\n        return (lot,PLdata[lot].product);\n        }\n        else\n        {\n        PLdata[lot].product= mdata[lot].product;\n        PLdata[lot].weight=mdata[lot].weight;\n        PLdata[lot].quantity=mdata[lot].quantity;\n        return (lot,PLdata[lot].product);\n        }\n        \n    }\n    function getManufacturerData(uint lot,string location,string product,uint quantity,uint weight) returns (uint)\n    {\n        //require(msg.sender==man_address);\n        uint new_lot=generate4Lot();\n        mdata[new_lot].man_address=msg.sender;\n        mdata[new_lot].product=product;\n        mdata[new_lot].quantity=quantity;\n        mdata[new_lot].timestamp=now;\n        mdata[new_lot].location=location;\n        mdata[new_lot].weight=weight;\n        mdata[new_lot].old_lot=lot;\n        return new_lot;\n    }\n    function getWareHouseData(uint lot,string location) returns (string)\n    {\n        //require(msg.sender==warehouse_address);\n        wdata[lot].ware_address=msg.sender;\n        wdata[lot].product=PLdata[lot].product;\n        wdata[lot].weight=PLdata[lot].weight;\n        wdata[lot].quantity=PLdata[lot].quantity;\n        wdata[lot].location=location;\n        wdata[lot].temperature=PLdata[lot].temperature;\n        wdata[lot].lot=lot;\n        return wdata[lot].product;\n    }\n    function getStoreData(uint lot,string location) returns(string)\n    {\n        //require(msg.sender==store_address);\n        sdata[lot].store_address=msg.sender;\n        sdata[lot].product= PLdata[lot].product;\n        sdata[lot].quantity=PLdata[lot].quantity;\n        sdata[lot].weight=PLdata[lot].weight;\n        sdata[lot].location=location;\n        sdata[lot].lot=lot;\n        return sdata[lot].product;\n    }\n    function consumer(uint lot)\n    {\n        \n    }\n}",
  "sourcePath": "/media/parik/New Volume/blockchain/blockchainFoodSupply/contracts/RichDapp.sol",
  "compiler": {
    "name": "solc",
    "version": "0.4.19+commit.c4cbbb05.Emscripten.clang"
  },
  "schemaVersion": "1.0.1",
  "updatedAt": "2018-04-15T14:25:01.946Z"
}